:100000000C942A000C9447000C9447000C94470071
:100010000C9447000C9447000C9447000C94470044
:100020000C9447000C9447000C94B1010C944700C9
:100030000C9447000C9447000C9447000C94470024
:100040000C9447000C9447000C9447000C94470014
:100050000C94470011241FBECFE5D8E0DEBFCDBF12
:1000600010E0A0E6B0E0E8EEF5E002C005900D92E9
:10007000AE36B107D9F720E0AEE6B0E001C01D9280
:10008000AD3EB207E1F70E948F010C94F2020C948E
:10009000000089B990BD88E18AB986E880BD0895DD
:1000A0005D9BFECF8CB90895CF93C82F8A3019F489
:1000B0008DE00E9450008C2F0E945000CF91089537
:1000C00083B78A6883BF87EC8CBF08952F923F92D5
:1000D0004F925F926F927F928F929F92AF92BF9258
:1000E000CF92DF92EF92FF920F931F93CF93DF9304
:1000F00000D000D0CDB7DEB717BA8FEF84BB1ABAE5
:1001000086B1866886B91092D8001092D7001092F6
:10011000B9001092B80085E592E09093A900809311
:10012000A8008EEB91E09093AB008093AA008DE441
:1001300091E09093AD008093AC008AEF90E09093B3
:10014000AF008093AE0087EC90E09093B100809375
:10015000B00085E990E09093B3008093B20082E014
:1001600090E09093CC008093CB009093CE0080934E
:10017000CD0081E090E09093D0008093CF009093E9
:10018000D2008093D1001092D4001092D30010922C
:10019000D6001092D50086E696E6A6E8BFE38093E7
:1001A000B4009093B500A093B600B093B7008EE36F
:1001B0009FECA3E7BFE380938C0090938D00A09306
:1001C0008E00B0938F000F2EF8EAAF2EF0E0BF2E16
:1001D000F02D0F2EF0E8CF2EF0E0DF2EF02D0F2EB9
:1001E000F9EDEF2EF0E0FF2EF02D0F2EFBEC8F2E11
:1001F000F0E09F2EF02D0F2EFEE62F2EF0E03F2E8A
:10020000F02D2AEB30E03A83298306E010E0F50177
:10021000219131915F013C832B83B90180E090E013
:100220000E9401022B013C0126E636E646E85FE328
:100230000E9467020E94D501F601619371936F01DC
:100240002EE33FEC43E75FE3C301B2010E94670284
:100250000E94D501F701619371937F01F4018191AF
:1002600091914F012B813C81280F391F2D5F3F4F0A
:10027000F101219331931F012B813C8123503109DE
:10028000281B390BE981FA8121933193FA83E983A1
:10029000015011090115110509F0B9CF86E090E070
:1002A0009093A7008093A6008FE090E09093990030
:1002B0008093980090939B0080939A008CE090E04C
:1002C00090939D0080939C0090939F0080939E004C
:1002D00084E090E09093A1008093A0009093A3000D
:1002E0008093A200109294000F900F900F900F90A7
:1002F000DF91CF911F910F91FF90EF90DF90CF9002
:10030000BF90AF909F908F907F906F905F904F9035
:100310003F902F90089589B7826089BF089580E645
:1003200090E09093EA008093E90083E390E00E94DC
:1003300049000E9460000E94660078940E948B0130
:100340008091B8009091B9002091D7003091D800E9
:10035000009709F0019721153105D1F3215031099A
:10036000F7CF1F920F920FB60F9211248F939F9386
:100370008091B8009091B900009729F0019790936F
:10038000B9008093B8008091D7009091D800009771
:1003900029F001979093D8008093D7009F918F9177
:1003A0000F900FBE0F901F90189570D088F09F5738
:1003B00090F0B92F9927B751A0F0D1F0660F771FB1
:1003C000881F991F1AF0BA95C9F712C0B13081F091
:1003D00077D0B1E0089574C0672F782F8827B85F71
:1003E00039F0B93FCCF3869577956795B395D9F7F2
:1003F0003EF490958095709561957F4F8F4F9F4FFC
:100400000895E89409C097FB3EF490958095709507
:1004100061957F4F8F4F9F4F9923A9F0F92F96E950
:10042000BB279395F695879577956795B795F111C5
:10043000F8CFFAF4BB0F11F460FF1BC06F5F7F4F62
:100440008F4F9F4F16C0882311F096E911C0772374
:1004500021F09EE8872F762F05C0662371F096E87D
:10046000862F70E060E02AF09A95660F771F881F4C
:10047000DAF7880F9695879597F9089557FD905864
:10048000440F551F59F05F3F71F04795880F97FB58
:10049000991F61F09F3F79F0879508951216130612
:1004A0001406551FF2CF4695F1DF08C01616170641
:1004B0001806991FF1CF8695710561050894089576
:1004C000E894BB2766277727CB0197F908950BD0CF
:1004D00078C069D028F06ED018F0952309F05AC082
:1004E0005FC01124EECFCADFA0F3959FD1F3950F23
:1004F00050E0551F629FF001729FBB27F00DB11DA8
:10050000639FAA27F00DB11DAA1F649F6627B00D37
:10051000A11D661F829F2227B00DA11D621F739F20
:10052000B00DA11D621F839FA00D611D221F749F2E
:100530003327A00D611D231F849F600D211D822F75
:10054000762F6A2F11249F5750408AF0E1F08823BC
:100550004AF0EE0FFF1FBB1F661F771F881F9150C9
:100560005040A9F79E3F510570F014C0AACF5F3FDD
:10057000ECF3983EDCF3869577956795B795F795FC
:10058000E7959F5FC1F7FE2B880F911D9695879584
:1005900097F9089597F99F6780E870E060E0089503
:1005A0009FEF80EC089500240A941616170618068B
:1005B0000906089500240A94121613061406050667
:1005C0000895092E0394000C11F4882352F0BB0FF8
:1005D00040F4BF2B11F460FF04C06F5F7F4F8F4F5B
:0805E0009F4F0895F894FFCF2E
:0E05E8000000000200000000540000000000AF
:00000001FF
