:100000000C942A000C943C000C943C000C943C0092
:100010000C943C000C943C000C943C000C943C0070
:100020000C943C000C943C000C9485010C943C0016
:100030000C943C000C943C000C943C000C943C0050
:100040000C943C000C943C000C943C000C943C0040
:100050000C943C0011241FBECFE5D8E0DEBFCDBF1D
:1000600020E0A0E6B0E001C01D92A93DB207E1F793
:100070000E946D010C94C6020C94000083B78A683C
:1000800083BF87EC8CBF08952F923F924F925F926F
:100090006F927F928F929F92AF92BF92CF92DF9298
:1000A000EF92FF920F931F93CF93DF9300D000D076
:1000B000CDB7DEB717BA8FEF84BB1ABA86B18668A0
:1000C00086B91092CA001092C9001092AB0010922B
:1000D000AA0085E592E090939B0080939A008EEBB6
:1000E00091E090939D0080939C008DE491E090932B
:1000F0009F0080939E008AEF90E09093A1008093F0
:10010000A00087EC90E09093A3008093A20085E983
:1001100090E09093A5008093A40082E090E09093FB
:10012000BE008093BD009093C0008093BF0081E02B
:1001300090E09093C2008093C1009093C40080939C
:10014000C3001092C6001092C5001092C800109211
:10015000C70086E696E6A6E8BFE38093A6009093E4
:10016000A700A093A800B093A9008EE39FECA3E79B
:10017000BFE380937E0090937F00A0938000B093B4
:1001800081000F2EFAE9AF2EF0E0BF2EF02D0F2EDA
:10019000F2E7CF2EF0E0DF2EF02D0F2EFBECEF2E4E
:1001A000F0E0FF2EF02D0F2EFDEB8F2EF0E09F2EB6
:1001B000F02D0F2EF0E62F2EF0E03F2EF02D2CEA42
:1001C00030E03A83298306E010E0F5012191319176
:1001D0005F013C832B83B90180E090E00E94D50150
:1001E0002B013C0126E636E646E85FE30E943B022F
:1001F0000E94A901F601619371936F012EE33FEC18
:1002000043E75FE3C301B2010E943B020E94A901E0
:10021000F701619371937F01F401819191914F01F5
:100220002B813C81280F391F2D5F3F4FF101219316
:1002300031931F012B813C8123503109281B390B3D
:10024000E981FA8121933193FA83E98301501109FD
:100250000115110509F0B9CF86E090E0909399005F
:10026000809398008FE090E090938B0080938A00B9
:1002700090938D0080938C008CE090E090938F00A1
:1002800080938E00909391008093900084E090E0A2
:1002900090939300809392009093950080939400A4
:1002A000109286000F900F900F900F90DF91CF91DA
:1002B0001F910F91FF90EF90DF90CF90BF90AF9084
:1002C0009F908F907F906F905F904F903F902F9076
:1002D000089589B7826089BF08950E943E000E94F8
:1002E000440078940E9469018091AA009091AB002B
:1002F0002091C9003091CA00009709F0019721159B
:100300003105D1F321503109F7CF1F920F920FB66B
:100310000F9211248F939F938091AA009091AB002C
:10032000009729F001979093AB008093AA008091E9
:10033000C9009091CA00009729F001979093CA00D4
:100340008093C9009F918F910F900FBE0F901F90C7
:10035000189570D088F09F5790F0B92F9927B75112
:10036000A0F0D1F0660F771F881F991F1AF0BA9579
:10037000C9F712C0B13081F077D0B1E0089574C0F0
:10038000672F782F8827B85F39F0B93FCCF386956F
:1003900077956795B395D9F73EF4909580957095CC
:1003A00061957F4F8F4F9F4F0895E89409C097FB49
:1003B0003EF490958095709561957F4F8F4F9F4F3C
:1003C0009923A9F0F92F96E9BB279395F695879580
:1003D00077956795B795F111F8CFFAF4BB0F11F443
:1003E00060FF1BC06F5F7F4F8F4F9F4F16C08823EA
:1003F00011F096E911C0772321F09EE8872F762F20
:1004000005C0662371F096E8862F70E060E02AF060
:100410009A95660F771F881FDAF7880F969587954C
:1004200097F9089557FD9058440F551F59F05F3FB5
:1004300071F04795880F97FB991F61F09F3F79F006
:1004400087950895121613061406551FF2CF469588
:10045000F1DF08C0161617061806991FF1CF86950A
:100460007105610508940895E894BB2766277727EE
:10047000CB0197F908950BD078C069D028F06ED0E1
:1004800018F0952309F05AC05FC01124EECFCADFDF
:10049000A0F3959FD1F3950F50E0551F629FF00197
:1004A000729FBB27F00DB11D639FAA27F00DB11DF0
:1004B000AA1F649F6627B00DA11D661F829F222779
:1004C000B00DA11D621F739FB00DA11D621F839F00
:1004D000A00D611D221F749F3327A00D611D231FD6
:1004E000849F600D211D822F762F6A2F11249F5724
:1004F00050408AF0E1F088234AF0EE0FFF1FBB1F47
:10050000661F771F881F91505040A9F79E3F5105E5
:1005100070F014C0AACF5F3FECF3983EDCF38695F1
:1005200077956795B795F795E7959F5FC1F7FE2B90
:10053000880F911D9695879597F9089597F99F676C
:1005400080E870E060E008959FEF80EC089500245B
:100550000A941616170618060906089500240A9428
:1005600012161306140605060895092E0394000CAE
:1005700011F4882352F0BB0F40F4BF2B11F460FF3D
:1005800004C06F5F7F4F8F4F9F4F0895F894FFCF48
:00000001FF
